{
  "contractName": "Token",
  "abi": [
    {
      "inputs": [
        {
          "internalType": "string",
          "name": "name_",
          "type": "string"
        },
        {
          "internalType": "string",
          "name": "symbol_",
          "type": "string"
        },
        {
          "internalType": "uint256",
          "name": "_initialSupply",
          "type": "uint256"
        },
        {
          "internalType": "address[]",
          "name": "_holders",
          "type": "address[]"
        }
      ],
      "stateMutability": "nonpayable",
      "type": "constructor"
    },
    {
      "anonymous": false,
      "inputs": [
        {
          "indexed": true,
          "internalType": "address",
          "name": "owner",
          "type": "address"
        },
        {
          "indexed": true,
          "internalType": "address",
          "name": "spender",
          "type": "address"
        },
        {
          "indexed": false,
          "internalType": "uint256",
          "name": "value",
          "type": "uint256"
        }
      ],
      "name": "Approval",
      "type": "event"
    },
    {
      "anonymous": false,
      "inputs": [
        {
          "indexed": true,
          "internalType": "address",
          "name": "from",
          "type": "address"
        },
        {
          "indexed": true,
          "internalType": "address",
          "name": "to",
          "type": "address"
        },
        {
          "indexed": false,
          "internalType": "uint256",
          "name": "value",
          "type": "uint256"
        }
      ],
      "name": "Transfer",
      "type": "event"
    },
    {
      "inputs": [
        {
          "internalType": "address",
          "name": "owner",
          "type": "address"
        },
        {
          "internalType": "address",
          "name": "spender",
          "type": "address"
        }
      ],
      "name": "allowance",
      "outputs": [
        {
          "internalType": "uint256",
          "name": "",
          "type": "uint256"
        }
      ],
      "stateMutability": "view",
      "type": "function",
      "constant": true
    },
    {
      "inputs": [
        {
          "internalType": "address",
          "name": "spender",
          "type": "address"
        },
        {
          "internalType": "uint256",
          "name": "amount",
          "type": "uint256"
        }
      ],
      "name": "approve",
      "outputs": [
        {
          "internalType": "bool",
          "name": "",
          "type": "bool"
        }
      ],
      "stateMutability": "nonpayable",
      "type": "function"
    },
    {
      "inputs": [
        {
          "internalType": "address",
          "name": "account",
          "type": "address"
        }
      ],
      "name": "balanceOf",
      "outputs": [
        {
          "internalType": "uint256",
          "name": "",
          "type": "uint256"
        }
      ],
      "stateMutability": "view",
      "type": "function",
      "constant": true
    },
    {
      "inputs": [],
      "name": "decimals",
      "outputs": [
        {
          "internalType": "uint8",
          "name": "",
          "type": "uint8"
        }
      ],
      "stateMutability": "view",
      "type": "function",
      "constant": true
    },
    {
      "inputs": [
        {
          "internalType": "address",
          "name": "spender",
          "type": "address"
        },
        {
          "internalType": "uint256",
          "name": "subtractedValue",
          "type": "uint256"
        }
      ],
      "name": "decreaseAllowance",
      "outputs": [
        {
          "internalType": "bool",
          "name": "",
          "type": "bool"
        }
      ],
      "stateMutability": "nonpayable",
      "type": "function"
    },
    {
      "inputs": [
        {
          "internalType": "address",
          "name": "spender",
          "type": "address"
        },
        {
          "internalType": "uint256",
          "name": "addedValue",
          "type": "uint256"
        }
      ],
      "name": "increaseAllowance",
      "outputs": [
        {
          "internalType": "bool",
          "name": "",
          "type": "bool"
        }
      ],
      "stateMutability": "nonpayable",
      "type": "function"
    },
    {
      "inputs": [],
      "name": "name",
      "outputs": [
        {
          "internalType": "string",
          "name": "",
          "type": "string"
        }
      ],
      "stateMutability": "view",
      "type": "function",
      "constant": true
    },
    {
      "inputs": [],
      "name": "symbol",
      "outputs": [
        {
          "internalType": "string",
          "name": "",
          "type": "string"
        }
      ],
      "stateMutability": "view",
      "type": "function",
      "constant": true
    },
    {
      "inputs": [],
      "name": "totalSupply",
      "outputs": [
        {
          "internalType": "uint256",
          "name": "",
          "type": "uint256"
        }
      ],
      "stateMutability": "view",
      "type": "function",
      "constant": true
    },
    {
      "inputs": [
        {
          "internalType": "address",
          "name": "recipient",
          "type": "address"
        },
        {
          "internalType": "uint256",
          "name": "amount",
          "type": "uint256"
        }
      ],
      "name": "transfer",
      "outputs": [
        {
          "internalType": "bool",
          "name": "",
          "type": "bool"
        }
      ],
      "stateMutability": "nonpayable",
      "type": "function"
    },
    {
      "inputs": [
        {
          "internalType": "address",
          "name": "sender",
          "type": "address"
        },
        {
          "internalType": "address",
          "name": "recipient",
          "type": "address"
        },
        {
          "internalType": "uint256",
          "name": "amount",
          "type": "uint256"
        }
      ],
      "name": "transferFrom",
      "outputs": [
        {
          "internalType": "bool",
          "name": "",
          "type": "bool"
        }
      ],
      "stateMutability": "nonpayable",
      "type": "function"
    },
    {
      "inputs": [
        {
          "internalType": "uint256",
          "name": "amount",
          "type": "uint256"
        }
      ],
      "name": "disperseFunds",
      "outputs": [],
      "stateMutability": "nonpayable",
      "type": "function"
    }
  ],
  "bytecode": "0x608060405260006006553480156200001657600080fd5b50604051620027ab380380620027ab83398181016040528101906200003c91906200061b565b838381600390805190602001906200005692919062000429565b5080600490805190602001906200006f92919062000429565b50505060008211620000b8576040517f08c379a0000000000000000000000000000000000000000000000000000000008152600401620000af906200085d565b60405180910390fd5b6000815111620000ff576040517f08c379a0000000000000000000000000000000000000000000000000000000008152600401620000f690620008a1565b60405180910390fd5b600a8151111562000147576040517f08c379a00000000000000000000000000000000000000000000000000000000081526004016200013e906200087f565b60405180910390fd5b62000183336200015c6200029d60201b60201c565b600a6200016a919062000a61565b8462000177919062000b9e565b620002a660201b60201c565b60005b81518110156200024a576005828281518110620001cc577f4e487b7100000000000000000000000000000000000000000000000000000000600052603260045260246000fd5b60200260200101519080600181540180825580915050600190039060005260206000200160009091909190916101000a81548173ffffffffffffffffffffffffffffffffffffffff021916908373ffffffffffffffffffffffffffffffffffffffff1602179055508080620002419062000cb6565b91505062000186565b504260068190555033600760006101000a81548173ffffffffffffffffffffffffffffffffffffffff021916908373ffffffffffffffffffffffffffffffffffffffff1602179055505050505062000dd2565b60006012905090565b600073ffffffffffffffffffffffffffffffffffffffff168273ffffffffffffffffffffffffffffffffffffffff16141562000319576040517f08c379a00000000000000000000000000000000000000000000000000000000081526004016200031090620008c3565b60405180910390fd5b6200032d600083836200041f60201b60201c565b8060026000828254620003419190620009a9565b92505081905550806000808473ffffffffffffffffffffffffffffffffffffffff1673ffffffffffffffffffffffffffffffffffffffff1681526020019081526020016000206000828254620003989190620009a9565b925050819055508173ffffffffffffffffffffffffffffffffffffffff16600073ffffffffffffffffffffffffffffffffffffffff167fddf252ad1be2c89b69c2b068fc378daa952ba7f163c4a11628f55a4df523b3ef83604051620003ff9190620008e5565b60405180910390a36200041b600083836200042460201b60201c565b5050565b505050565b505050565b828054620004379062000c80565b90600052602060002090601f0160209004810192826200045b5760008555620004a7565b82601f106200047657805160ff1916838001178555620004a7565b82800160010185558215620004a7579182015b82811115620004a657825182559160200191906001019062000489565b5b509050620004b69190620004ba565b5090565b5b80821115620004d5576000816000905550600101620004bb565b5090565b6000620004f0620004ea8462000936565b62000902565b905080838252602082019050828560208602820111156200051057600080fd5b60005b8581101562000544578162000529888262000593565b84526020840193506020830192505060018101905062000513565b5050509392505050565b6000620005656200055f8462000965565b62000902565b9050828152602081018484840111156200057e57600080fd5b6200058b84828562000c4a565b509392505050565b600081519050620005a48162000d9e565b92915050565b600082601f830112620005bc57600080fd5b8151620005ce848260208601620004d9565b91505092915050565b600082601f830112620005e957600080fd5b8151620005fb8482602086016200054e565b91505092915050565b600081519050620006158162000db8565b92915050565b600080600080608085870312156200063257600080fd5b600085015167ffffffffffffffff8111156200064d57600080fd5b6200065b87828801620005d7565b945050602085015167ffffffffffffffff8111156200067957600080fd5b6200068787828801620005d7565b93505060406200069a8782880162000604565b925050606085015167ffffffffffffffff811115620006b857600080fd5b620006c687828801620005aa565b91505092959194509250565b6000620006e160278362000998565b91507f494e495449414c5f535550504c592068617320746f206265206772656174657260008301527f207468616e2030000000000000000000000000000000000000000000000000006020830152604082019050919050565b60006200074960228362000998565b91507f4f6e6c7920313020686f6c64657220616464726573732061726520616c6c6f7760008301527f65640000000000000000000000000000000000000000000000000000000000006020830152604082019050919050565b6000620007b1602b8362000998565b91507f4174206c65617374203120486f6c64657220616464726573732073686f756c6460008301527f20626520656e74657265640000000000000000000000000000000000000000006020830152604082019050919050565b600062000819601f8362000998565b91507f45524332303a206d696e7420746f20746865207a65726f2061646472657373006000830152602082019050919050565b620008578162000c33565b82525050565b600060208201905081810360008301526200087881620006d2565b9050919050565b600060208201905081810360008301526200089a816200073a565b9050919050565b60006020820190508181036000830152620008bc81620007a2565b9050919050565b60006020820190508181036000830152620008de816200080a565b9050919050565b6000602082019050620008fc60008301846200084c565b92915050565b6000604051905081810181811067ffffffffffffffff821117156200092c576200092b62000d62565b5b8060405250919050565b600067ffffffffffffffff82111562000954576200095362000d62565b5b602082029050602081019050919050565b600067ffffffffffffffff82111562000983576200098262000d62565b5b601f19601f8301169050602081019050919050565b600082825260208201905092915050565b6000620009b68262000c33565b9150620009c38362000c33565b9250827fffffffffffffffffffffffffffffffffffffffffffffffffffffffffffffffff03821115620009fb57620009fa62000d04565b5b828201905092915050565b6000808291508390505b600185111562000a585780860481111562000a305762000a2f62000d04565b5b600185161562000a405780820291505b808102905062000a508562000d91565b945062000a10565b94509492505050565b600062000a6e8262000c33565b915062000a7b8362000c3d565b925062000aaa7fffffffffffffffffffffffffffffffffffffffffffffffffffffffffffffffff848462000ab2565b905092915050565b60008262000ac4576001905062000b97565b8162000ad4576000905062000b97565b816001811462000aed576002811462000af85762000b2e565b600191505062000b97565b60ff84111562000b0d5762000b0c62000d04565b5b8360020a91508482111562000b275762000b2662000d04565b5b5062000b97565b5060208310610133831016604e8410600b841016171562000b685782820a90508381111562000b625762000b6162000d04565b5b62000b97565b62000b77848484600162000a06565b9250905081840481111562000b915762000b9062000d04565b5b81810290505b9392505050565b600062000bab8262000c33565b915062000bb88362000c33565b9250817fffffffffffffffffffffffffffffffffffffffffffffffffffffffffffffffff048311821515161562000bf45762000bf362000d04565b5b828202905092915050565b600062000c0c8262000c13565b9050919050565b600073ffffffffffffffffffffffffffffffffffffffff82169050919050565b6000819050919050565b600060ff82169050919050565b60005b8381101562000c6a57808201518184015260208101905062000c4d565b8381111562000c7a576000848401525b50505050565b6000600282049050600182168062000c9957607f821691505b6020821081141562000cb05762000caf62000d33565b5b50919050565b600062000cc38262000c33565b91507fffffffffffffffffffffffffffffffffffffffffffffffffffffffffffffffff82141562000cf95762000cf862000d04565b5b600182019050919050565b7f4e487b7100000000000000000000000000000000000000000000000000000000600052601160045260246000fd5b7f4e487b7100000000000000000000000000000000000000000000000000000000600052602260045260246000fd5b7f4e487b7100000000000000000000000000000000000000000000000000000000600052604160045260246000fd5b60008160011c9050919050565b62000da98162000bff565b811462000db557600080fd5b50565b62000dc38162000c33565b811462000dcf57600080fd5b50565b6119c98062000de26000396000f3fe608060405234801561001057600080fd5b50600436106100b45760003560e01c80634252196d116100715780634252196d146101a357806370a08231146101bf57806395d89b41146101ef578063a457c2d71461020d578063a9059cbb1461023d578063dd62ed3e1461026d576100b4565b806306fdde03146100b9578063095ea7b3146100d757806318160ddd1461010757806323b872dd14610125578063313ce567146101555780633950935114610173575b600080fd5b6100c161029d565b6040516100ce91906113b1565b60405180910390f35b6100f160048036038101906100ec9190610ecf565b61032f565b6040516100fe9190611396565b60405180910390f35b61010f61034d565b60405161011c9190611513565b60405180910390f35b61013f600480360381019061013a9190610e80565b610357565b60405161014c9190611396565b60405180910390f35b61015d61044f565b60405161016a919061152e565b60405180910390f35b61018d60048036038101906101889190610ecf565b610458565b60405161019a9190611396565b60405180910390f35b6101bd60048036038101906101b89190610f0b565b610504565b005b6101d960048036038101906101d49190610e1b565b610729565b6040516101e69190611513565b60405180910390f35b6101f7610771565b60405161020491906113b1565b60405180910390f35b61022760048036038101906102229190610ecf565b610803565b6040516102349190611396565b60405180910390f35b61025760048036038101906102529190610ecf565b6108ee565b6040516102649190611396565b60405180910390f35b61028760048036038101906102829190610e44565b61090c565b6040516102949190611513565b60405180910390f35b6060600380546102ac9061183f565b80601f01602080910402602001604051908101604052809291908181526020018280546102d89061183f565b80156103255780601f106102fa57610100808354040283529160200191610325565b820191906000526020600020905b81548152906001019060200180831161030857829003601f168201915b5050505050905090565b600061034361033c610993565b848461099b565b6001905092915050565b6000600254905090565b6000610364848484610b66565b6000600160008673ffffffffffffffffffffffffffffffffffffffff1673ffffffffffffffffffffffffffffffffffffffff16815260200190815260200160002060006103af610993565b73ffffffffffffffffffffffffffffffffffffffff1673ffffffffffffffffffffffffffffffffffffffff1681526020019081526020016000205490508281101561042f576040517f08c379a000000000000000000000000000000000000000000000000000000000815260040161042690611433565b60405180910390fd5b6104438561043b610993565b85840361099b565b60019150509392505050565b60006012905090565b60006104fa610465610993565b848460016000610473610993565b73ffffffffffffffffffffffffffffffffffffffff1673ffffffffffffffffffffffffffffffffffffffff16815260200190815260200160002060008873ffffffffffffffffffffffffffffffffffffffff1673ffffffffffffffffffffffffffffffffffffffff168152602001908152602001600020546104f59190611565565b61099b565b6001905092915050565b600760009054906101000a900473ffffffffffffffffffffffffffffffffffffffff1673ffffffffffffffffffffffffffffffffffffffff163373ffffffffffffffffffffffffffffffffffffffff1614610594576040517f08c379a000000000000000000000000000000000000000000000000000000000815260040161058b90611493565b60405180910390fd5b6006544210156105d9576040517f08c379a00000000000000000000000000000000000000000000000000000000081526004016105d0906114b3565b60405180910390fd5b60006105e361044f565b600a6105ef919061163f565b826105fa919061175d565b9050610627600760009054906101000a900473ffffffffffffffffffffffffffffffffffffffff16610729565b811115610669576040517f08c379a0000000000000000000000000000000000000000000000000000000008152600401610660906114d3565b60405180910390fd5b60006005805490508261067c91906115bb565b905060005b600580549050811015610710576106fc600582815481106106cb577f4e487b7100000000000000000000000000000000000000000000000000000000600052603260045260246000fd5b9060005260206000200160009054906101000a900473ffffffffffffffffffffffffffffffffffffffff16836108ee565b50808061070890611871565b915050610681565b50603c4261071e9190611565565b600681905550505050565b60008060008373ffffffffffffffffffffffffffffffffffffffff1673ffffffffffffffffffffffffffffffffffffffff168152602001908152602001600020549050919050565b6060600480546107809061183f565b80601f01602080910402602001604051908101604052809291908181526020018280546107ac9061183f565b80156107f95780601f106107ce576101008083540402835291602001916107f9565b820191906000526020600020905b8154815290600101906020018083116107dc57829003601f168201915b5050505050905090565b60008060016000610812610993565b73ffffffffffffffffffffffffffffffffffffffff1673ffffffffffffffffffffffffffffffffffffffff16815260200190815260200160002060008573ffffffffffffffffffffffffffffffffffffffff1673ffffffffffffffffffffffffffffffffffffffff168152602001908152602001600020549050828110156108cf576040517f08c379a00000000000000000000000000000000000000000000000000000000081526004016108c6906114f3565b60405180910390fd5b6108e36108da610993565b8585840361099b565b600191505092915050565b60006109026108fb610993565b8484610b66565b6001905092915050565b6000600160008473ffffffffffffffffffffffffffffffffffffffff1673ffffffffffffffffffffffffffffffffffffffff16815260200190815260200160002060008373ffffffffffffffffffffffffffffffffffffffff1673ffffffffffffffffffffffffffffffffffffffff16815260200190815260200160002054905092915050565b600033905090565b600073ffffffffffffffffffffffffffffffffffffffff168373ffffffffffffffffffffffffffffffffffffffff161415610a0b576040517f08c379a0000000000000000000000000000000000000000000000000000000008152600401610a0290611473565b60405180910390fd5b600073ffffffffffffffffffffffffffffffffffffffff168273ffffffffffffffffffffffffffffffffffffffff161415610a7b576040517f08c379a0000000000000000000000000000000000000000000000000000000008152600401610a72906113f3565b60405180910390fd5b80600160008573ffffffffffffffffffffffffffffffffffffffff1673ffffffffffffffffffffffffffffffffffffffff16815260200190815260200160002060008473ffffffffffffffffffffffffffffffffffffffff1673ffffffffffffffffffffffffffffffffffffffff168152602001908152602001600020819055508173ffffffffffffffffffffffffffffffffffffffff168373ffffffffffffffffffffffffffffffffffffffff167f8c5be1e5ebec7d5bd14f71427d1e84f3dd0314c0f7b2291e5b200ac8c7c3b92583604051610b599190611513565b60405180910390a3505050565b600073ffffffffffffffffffffffffffffffffffffffff168373ffffffffffffffffffffffffffffffffffffffff161415610bd6576040517f08c379a0000000000000000000000000000000000000000000000000000000008152600401610bcd90611453565b60405180910390fd5b600073ffffffffffffffffffffffffffffffffffffffff168273ffffffffffffffffffffffffffffffffffffffff161415610c46576040517f08c379a0000000000000000000000000000000000000000000000000000000008152600401610c3d906113d3565b60405180910390fd5b610c51838383610de7565b60008060008573ffffffffffffffffffffffffffffffffffffffff1673ffffffffffffffffffffffffffffffffffffffff16815260200190815260200160002054905081811015610cd7576040517f08c379a0000000000000000000000000000000000000000000000000000000008152600401610cce90611413565b60405180910390fd5b8181036000808673ffffffffffffffffffffffffffffffffffffffff1673ffffffffffffffffffffffffffffffffffffffff16815260200190815260200160002081905550816000808573ffffffffffffffffffffffffffffffffffffffff1673ffffffffffffffffffffffffffffffffffffffff1681526020019081526020016000206000828254610d6a9190611565565b925050819055508273ffffffffffffffffffffffffffffffffffffffff168473ffffffffffffffffffffffffffffffffffffffff167fddf252ad1be2c89b69c2b068fc378daa952ba7f163c4a11628f55a4df523b3ef84604051610dce9190611513565b60405180910390a3610de1848484610dec565b50505050565b505050565b505050565b600081359050610e0081611965565b92915050565b600081359050610e158161197c565b92915050565b600060208284031215610e2d57600080fd5b6000610e3b84828501610df1565b91505092915050565b60008060408385031215610e5757600080fd5b6000610e6585828601610df1565b9250506020610e7685828601610df1565b9150509250929050565b600080600060608486031215610e9557600080fd5b6000610ea386828701610df1565b9350506020610eb486828701610df1565b9250506040610ec586828701610e06565b9150509250925092565b60008060408385031215610ee257600080fd5b6000610ef085828601610df1565b9250506020610f0185828601610e06565b9150509250929050565b600060208284031215610f1d57600080fd5b6000610f2b84828501610e06565b91505092915050565b610f3d816117c9565b82525050565b6000610f4e82611549565b610f588185611554565b9350610f6881856020860161180c565b610f7181611947565b840191505092915050565b6000610f89602383611554565b91507f45524332303a207472616e7366657220746f20746865207a65726f206164647260008301527f65737300000000000000000000000000000000000000000000000000000000006020830152604082019050919050565b6000610fef602283611554565b91507f45524332303a20617070726f766520746f20746865207a65726f20616464726560008301527f73730000000000000000000000000000000000000000000000000000000000006020830152604082019050919050565b6000611055602683611554565b91507f45524332303a207472616e7366657220616d6f756e742065786365656473206260008301527f616c616e636500000000000000000000000000000000000000000000000000006020830152604082019050919050565b60006110bb602883611554565b91507f45524332303a207472616e7366657220616d6f756e742065786365656473206160008301527f6c6c6f77616e63650000000000000000000000000000000000000000000000006020830152604082019050919050565b6000611121602583611554565b91507f45524332303a207472616e736665722066726f6d20746865207a65726f20616460008301527f64726573730000000000000000000000000000000000000000000000000000006020830152604082019050919050565b6000611187602483611554565b91507f45524332303a20617070726f76652066726f6d20746865207a65726f2061646460008301527f72657373000000000000000000000000000000000000000000000000000000006020830152604082019050919050565b60006111ed602483611554565b91507f5468652063616c6c6572206973206e6f742074686520636f6e7472616374206f60008301527f776e6572000000000000000000000000000000000000000000000000000000006020830152604082019050919050565b6000611253603583611554565b91507f43616e206f6e6c792064697370657273652066756e647320616674657220616e60008301527f20696e74657276616c206f662031206d696e75746500000000000000000000006020830152604082019050919050565b60006112b9603583611554565b91507f546865206e756d626572206f6620746f6b656e7320617265206e6f7420656e6f60008301527f75676820666f722074686973207472616e7366657200000000000000000000006020830152604082019050919050565b600061131f602583611554565b91507f45524332303a2064656372656173656420616c6c6f77616e63652062656c6f7760008301527f207a65726f0000000000000000000000000000000000000000000000000000006020830152604082019050919050565b611381816117f5565b82525050565b611390816117ff565b82525050565b60006020820190506113ab6000830184610f34565b92915050565b600060208201905081810360008301526113cb8184610f43565b905092915050565b600060208201905081810360008301526113ec81610f7c565b9050919050565b6000602082019050818103600083015261140c81610fe2565b9050919050565b6000602082019050818103600083015261142c81611048565b9050919050565b6000602082019050818103600083015261144c816110ae565b9050919050565b6000602082019050818103600083015261146c81611114565b9050919050565b6000602082019050818103600083015261148c8161117a565b9050919050565b600060208201905081810360008301526114ac816111e0565b9050919050565b600060208201905081810360008301526114cc81611246565b9050919050565b600060208201905081810360008301526114ec816112ac565b9050919050565b6000602082019050818103600083015261150c81611312565b9050919050565b60006020820190506115286000830184611378565b92915050565b60006020820190506115436000830184611387565b92915050565b600081519050919050565b600082825260208201905092915050565b6000611570826117f5565b915061157b836117f5565b9250827fffffffffffffffffffffffffffffffffffffffffffffffffffffffffffffffff038211156115b0576115af6118ba565b5b828201905092915050565b60006115c6826117f5565b91506115d1836117f5565b9250826115e1576115e06118e9565b5b828204905092915050565b6000808291508390505b600185111561163657808604811115611612576116116118ba565b5b60018516156116215780820291505b808102905061162f85611958565b94506115f6565b94509492505050565b600061164a826117f5565b9150611655836117ff565b92506116827fffffffffffffffffffffffffffffffffffffffffffffffffffffffffffffffff848461168a565b905092915050565b60008261169a5760019050611756565b816116a85760009050611756565b81600181146116be57600281146116c8576116f7565b6001915050611756565b60ff8411156116da576116d96118ba565b5b8360020a9150848211156116f1576116f06118ba565b5b50611756565b5060208310610133831016604e8410600b841016171561172c5782820a905083811115611727576117266118ba565b5b611756565b61173984848460016115ec565b925090508184048111156117505761174f6118ba565b5b81810290505b9392505050565b6000611768826117f5565b9150611773836117f5565b9250817fffffffffffffffffffffffffffffffffffffffffffffffffffffffffffffffff04831182151516156117ac576117ab6118ba565b5b828202905092915050565b60006117c2826117d5565b9050919050565b60008115159050919050565b600073ffffffffffffffffffffffffffffffffffffffff82169050919050565b6000819050919050565b600060ff82169050919050565b60005b8381101561182a57808201518184015260208101905061180f565b83811115611839576000848401525b50505050565b6000600282049050600182168061185757607f821691505b6020821081141561186b5761186a611918565b5b50919050565b600061187c826117f5565b91507fffffffffffffffffffffffffffffffffffffffffffffffffffffffffffffffff8214156118af576118ae6118ba565b5b600182019050919050565b7f4e487b7100000000000000000000000000000000000000000000000000000000600052601160045260246000fd5b7f4e487b7100000000000000000000000000000000000000000000000000000000600052601260045260246000fd5b7f4e487b7100000000000000000000000000000000000000000000000000000000600052602260045260246000fd5b6000601f19601f8301169050919050565b60008160011c9050919050565b61196e816117b7565b811461197957600080fd5b50565b611985816117f5565b811461199057600080fd5b5056fea2646970667358221220c45855eb38ffa676bf63c9e3fe326ca5605932675e883a31239f80326a8babf764736f6c63430008000033",
  "immutableReferences": {},
  "source": "// SPDX-License-Identifier: MIT\r\n\r\npragma solidity ^0.8.0;\r\n\r\nimport \"@openzeppelin/contracts/token/ERC20/ERC20.sol\";\r\n\r\ncontract Token is ERC20 {\r\n\r\n    address[] holders;\r\n    uint claimLockedUntil = 0;\r\n    address contractOwner;\r\n\r\n    constructor(string memory name_, string memory symbol_, uint _initialSupply, address[] memory _holders) public \r\n    ERC20(name_, symbol_) {\r\n        require(_initialSupply > 0, \"INITIAL_SUPPLY has to be greater than 0\");\r\n        require(_holders.length > 0, \"At least 1 Holder address should be entered\");\r\n        require(_holders.length <= 10, \"Only 10 holder address are allowed\");\r\n        _mint(msg.sender, _initialSupply * (10 ** decimals()));\r\n        for(uint i = 0; i < _holders.length; i++) {\r\n            holders.push(_holders[i]);\r\n        }\r\n        claimLockedUntil = block.timestamp;\r\n        contractOwner = msg.sender;\r\n    } \r\n\r\n    modifier onlyContractOwner() {\r\n        require(\r\n        msg.sender == contractOwner,\r\n        \"The caller is not the contract owner\"\r\n        );\r\n        _;\r\n  }\r\n\r\n    function disperseFunds(uint amount) public onlyContractOwner {\r\n        require(block.timestamp >= claimLockedUntil, \"Can only disperse funds after an interval of 1 minute\");\r\n        uint numTokens = amount * (10 ** decimals());\r\n        require(numTokens <= balanceOf(contractOwner), \"The number of tokens are not enough for this transfer\");\r\n        uint tokensToEachAddress = numTokens / holders.length;\r\n        for(uint i = 0; i < holders.length; i++) {\r\n            transfer(holders[i], tokensToEachAddress);\r\n        }\r\n        claimLockedUntil = block.timestamp + 60;\r\n    }\r\n}",
  "sourcePath": "D:/AssignmentToken/contracts/Token.sol",
  "compiler": {
    "name": "solc",
    "version": "0.8.0+commit.c7dfd78e.Emscripten.clang"
  },
  "schemaVersion": "3.4.1",
  "updatedAt": "2021-09-21T06:56:41.143Z",
  "networkType": "ethereum",
  "devdoc": {
    "kind": "dev",
    "methods": {
      "allowance(address,address)": {
        "details": "See {IERC20-allowance}."
      },
      "approve(address,uint256)": {
        "details": "See {IERC20-approve}. Requirements: - `spender` cannot be the zero address."
      },
      "balanceOf(address)": {
        "details": "See {IERC20-balanceOf}."
      },
      "decimals()": {
        "details": "Returns the number of decimals used to get its user representation. For example, if `decimals` equals `2`, a balance of `505` tokens should be displayed to a user as `5.05` (`505 / 10 ** 2`). Tokens usually opt for a value of 18, imitating the relationship between Ether and Wei. This is the value {ERC20} uses, unless this function is overridden; NOTE: This information is only used for _display_ purposes: it in no way affects any of the arithmetic of the contract, including {IERC20-balanceOf} and {IERC20-transfer}."
      },
      "decreaseAllowance(address,uint256)": {
        "details": "Atomically decreases the allowance granted to `spender` by the caller. This is an alternative to {approve} that can be used as a mitigation for problems described in {IERC20-approve}. Emits an {Approval} event indicating the updated allowance. Requirements: - `spender` cannot be the zero address. - `spender` must have allowance for the caller of at least `subtractedValue`."
      },
      "increaseAllowance(address,uint256)": {
        "details": "Atomically increases the allowance granted to `spender` by the caller. This is an alternative to {approve} that can be used as a mitigation for problems described in {IERC20-approve}. Emits an {Approval} event indicating the updated allowance. Requirements: - `spender` cannot be the zero address."
      },
      "name()": {
        "details": "Returns the name of the token."
      },
      "symbol()": {
        "details": "Returns the symbol of the token, usually a shorter version of the name."
      },
      "totalSupply()": {
        "details": "See {IERC20-totalSupply}."
      },
      "transfer(address,uint256)": {
        "details": "See {IERC20-transfer}. Requirements: - `recipient` cannot be the zero address. - the caller must have a balance of at least `amount`."
      },
      "transferFrom(address,address,uint256)": {
        "details": "See {IERC20-transferFrom}. Emits an {Approval} event indicating the updated allowance. This is not required by the EIP. See the note at the beginning of {ERC20}. Requirements: - `sender` and `recipient` cannot be the zero address. - `sender` must have a balance of at least `amount`. - the caller must have allowance for ``sender``'s tokens of at least `amount`."
      }
    },
    "version": 1
  },
  "userdoc": {
    "kind": "user",
    "methods": {},
    "version": 1
  }
}